{"contracts/AituSE2320.sol":{"AituSE2320":{"abi":[{"inputs":[{"internalType":"uint256","name":"_initialValue","type":"uint256"}],"stateMutability":"nonpayable","type":"constructor"},{"inputs":[{"internalType":"address","name":"spender","type":"address"},{"internalType":"uint256","name":"allowance","type":"uint256"},{"internalType":"uint256","name":"needed","type":"uint256"}],"name":"ERC20InsufficientAllowance","type":"error"},{"inputs":[{"internalType":"address","name":"sender","type":"address"},{"internalType":"uint256","name":"balance","type":"uint256"},{"internalType":"uint256","name":"needed","type":"uint256"}],"name":"ERC20InsufficientBalance","type":"error"},{"inputs":[{"internalType":"address","name":"approver","type":"address"}],"name":"ERC20InvalidApprover","type":"error"},{"inputs":[{"internalType":"address","name":"receiver","type":"address"}],"name":"ERC20InvalidReceiver","type":"error"},{"inputs":[{"internalType":"address","name":"sender","type":"address"}],"name":"ERC20InvalidSender","type":"error"},{"inputs":[{"internalType":"address","name":"spender","type":"address"}],"name":"ERC20InvalidSpender","type":"error"},{"anonymous":false,"inputs":[{"indexed":true,"internalType":"address","name":"owner","type":"address"},{"indexed":true,"internalType":"address","name":"spender","type":"address"},{"indexed":false,"internalType":"uint256","name":"value","type":"uint256"}],"name":"Approval","type":"event"},{"anonymous":false,"inputs":[{"indexed":true,"internalType":"address","name":"sender","type":"address"},{"indexed":true,"internalType":"address","name":"receiver","type":"address"},{"indexed":false,"internalType":"uint256","name":"amount","type":"uint256"},{"indexed":false,"internalType":"uint256","name":"timestamp","type":"uint256"}],"name":"TransactionDetails","type":"event"},{"anonymous":false,"inputs":[{"indexed":true,"internalType":"address","name":"from","type":"address"},{"indexed":true,"internalType":"address","name":"to","type":"address"},{"indexed":false,"internalType":"uint256","name":"value","type":"uint256"}],"name":"Transfer","type":"event"},{"inputs":[{"internalType":"address","name":"owner","type":"address"},{"internalType":"address","name":"spender","type":"address"}],"name":"allowance","outputs":[{"internalType":"uint256","name":"","type":"uint256"}],"stateMutability":"view","type":"function"},{"inputs":[{"internalType":"address","name":"spender","type":"address"},{"internalType":"uint256","name":"value","type":"uint256"}],"name":"approve","outputs":[{"internalType":"bool","name":"","type":"bool"}],"stateMutability":"nonpayable","type":"function"},{"inputs":[{"internalType":"address","name":"account","type":"address"}],"name":"balanceOf","outputs":[{"internalType":"uint256","name":"","type":"uint256"}],"stateMutability":"view","type":"function"},{"inputs":[],"name":"decimals","outputs":[{"internalType":"uint8","name":"","type":"uint8"}],"stateMutability":"view","type":"function"},{"inputs":[],"name":"getInitialMintValue","outputs":[{"internalType":"uint256","name":"","type":"uint256"}],"stateMutability":"view","type":"function"},{"inputs":[{"internalType":"uint256","name":"index","type":"uint256"}],"name":"getTransaction","outputs":[{"internalType":"address","name":"","type":"address"},{"internalType":"address","name":"","type":"address"},{"internalType":"uint256","name":"","type":"uint256"},{"internalType":"uint256","name":"","type":"uint256"}],"stateMutability":"view","type":"function"},{"inputs":[],"name":"getTransactionReceiver","outputs":[{"internalType":"address","name":"","type":"address"}],"stateMutability":"view","type":"function"},{"inputs":[],"name":"getTransactionSender","outputs":[{"internalType":"address","name":"","type":"address"}],"stateMutability":"view","type":"function"},{"inputs":[],"name":"getTransactionTimestamp","outputs":[{"internalType":"string","name":"","type":"string"}],"stateMutability":"view","type":"function"},{"inputs":[],"name":"name","outputs":[{"internalType":"string","name":"","type":"string"}],"stateMutability":"view","type":"function"},{"inputs":[],"name":"symbol","outputs":[{"internalType":"string","name":"","type":"string"}],"stateMutability":"view","type":"function"},{"inputs":[],"name":"totalSupply","outputs":[{"internalType":"uint256","name":"","type":"uint256"}],"stateMutability":"view","type":"function"},{"inputs":[{"internalType":"address","name":"recipient","type":"address"},{"internalType":"uint256","name":"amount","type":"uint256"}],"name":"transfer","outputs":[{"internalType":"bool","name":"","type":"bool"}],"stateMutability":"nonpayable","type":"function"},{"inputs":[{"internalType":"address","name":"from","type":"address"},{"internalType":"address","name":"to","type":"address"},{"internalType":"uint256","name":"value","type":"uint256"}],"name":"transferFrom","outputs":[{"internalType":"bool","name":"","type":"bool"}],"stateMutability":"nonpayable","type":"function"}],"evm":{"bytecode":{"linkReferences":{},"object":"60806040523480156200001157600080fd5b506040516200158d3803806200158d83398101604081905262000034916200023d565b6040518060400160405280600a8152602001690416974755345323332360b41b815250604051806040016040528060048152602001634149545560e01b8152508160039081620000859190620002fc565b506004620000948282620002fc565b5050506006819055620000c133620000af6012600a620004dd565b620000bb9084620004f5565b620000c8565b5062000525565b6001600160a01b038216620000f85760405163ec442f0560e01b8152600060048201526024015b60405180910390fd5b62000106600083836200010a565b5050565b6001600160a01b038316620001395780600260008282546200012d91906200050f565b90915550620001ad9050565b6001600160a01b038316600090815260208190526040902054818110156200018e5760405163391434e360e21b81526001600160a01b03851660048201526024810182905260448101839052606401620000ef565b6001600160a01b03841660009081526020819052604090209082900390555b6001600160a01b038216620001cb57600280548290039055620001ea565b6001600160a01b03821660009081526020819052604090208054820190555b816001600160a01b0316836001600160a01b03167fddf252ad1be2c89b69c2b068fc378daa952ba7f163c4a11628f55a4df523b3ef836040516200023091815260200190565b60405180910390a3505050565b6000602082840312156200025057600080fd5b5051919050565b634e487b7160e01b600052604160045260246000fd5b600181811c908216806200028257607f821691505b602082108103620002a357634e487b7160e01b600052602260045260246000fd5b50919050565b601f821115620002f757600081815260208120601f850160051c81016020861015620002d25750805b601f850160051c820191505b81811015620002f357828155600101620002de565b5050505b505050565b81516001600160401b0381111562000318576200031862000257565b62000330816200032984546200026d565b84620002a9565b602080601f8311600181146200036857600084156200034f5750858301515b600019600386901b1c1916600185901b178555620002f3565b600085815260208120601f198616915b82811015620003995788860151825594840194600190910190840162000378565b5085821015620003b85787850151600019600388901b60f8161c191681555b5050505050600190811b01905550565b634e487b7160e01b600052601160045260246000fd5b600181815b808511156200041f578160001904821115620004035762000403620003c8565b808516156200041157918102915b93841c9390800290620003e3565b509250929050565b6000826200043857506001620004d7565b816200044757506000620004d7565b81600181146200046057600281146200046b576200048b565b6001915050620004d7565b60ff8411156200047f576200047f620003c8565b50506001821b620004d7565b5060208310610133831016604e8410600b8410161715620004b0575081810a620004d7565b620004bc8383620003de565b8060001904821115620004d357620004d3620003c8565b0290505b92915050565b6000620004ee60ff84168362000427565b9392505050565b8082028115828204841417620004d757620004d7620003c8565b80820180821115620004d757620004d7620003c8565b61105880620005356000396000f3fe608060405234801561001057600080fd5b50600436106100ea5760003560e01c806370a082311161008c57806395d89b411161006657806395d89b41146101fb578063a9059cbb14610203578063bead3f5014610216578063dd62ed3e1461021e57600080fd5b806370a08231146101aa57806381ccf4c4146101d3578063841b39fc146101db57600080fd5b80631a80be61116100c85780631a80be611461014257806323b872dd1461014a578063313ce5671461015d57806333ea3dc81461016c57600080fd5b806306fdde03146100ef578063095ea7b31461010d57806318160ddd14610130575b600080fd5b6100f7610257565b6040516101049190610cbd565b60405180910390f35b61012061011b366004610d0c565b6102e9565b6040519015158152602001610104565b6002545b604051908152602001610104565b600654610134565b610120610158366004610d36565b610303565b60405160128152602001610104565b61017f61017a366004610d72565b610327565b604080516001600160a01b039586168152949093166020850152918301526060820152608001610104565b6101346101b8366004610d8b565b6001600160a01b031660009081526020819052604090205490565b6100f76103fe565b6101e3610461565b6040516001600160a01b039091168152602001610104565b6100f76104c5565b610120610211366004610d0c565b6104d4565b6101e3610635565b61013461022c366004610da6565b6001600160a01b03918216600090815260016020908152604080832093909416825291909152205490565b60606003805461026690610dd9565b80601f016020809104026020016040519081016040528092919081815260200182805461029290610dd9565b80156102df5780601f106102b4576101008083540402835291602001916102df565b820191906000526020600020905b8154815290600101906020018083116102c257829003601f168201915b5050505050905090565b6000336102f7818585610696565b60019150505b92915050565b6000336103118582856106a8565b61031c858585610727565b506001949350505050565b60008060008060058054905085106103865760405162461bcd60e51b815260206004820152601a60248201527f5472616e73616374696f6e20646f6573206e6f7420657869737400000000000060448201526064015b60405180910390fd5b60006005868154811061039b5761039b610e13565b60009182526020918290206040805160808101825260049390930290910180546001600160a01b03908116808552600183015490911694840185905260028201549284018390526003909101546060909301839052999298509650945092505050565b6005546060906104205760405162461bcd60e51b815260040161037d90610e29565b6005805461045c919061043590600190610e6c565b8154811061044557610445610e13565b906000526020600020906004020160030154610786565b905090565b6005546000906104835760405162461bcd60e51b815260040161037d90610e29565b6005805461049390600190610e6c565b815481106104a3576104a3610e13565b60009182526020909120600160049092020101546001600160a01b0316919050565b60606004805461026690610dd9565b6000806104e184846107ed565b9050801561062e5760408051608081018252338082526001600160a01b0387811660208401818152848601898152426060870181815260058054600181018255600091909152975160049098027f036b6384b5eca791c62761152d0c79bb0604c104a5fb6f4eb0703f3154bb3db0810180549988166001600160a01b03199a8b1617905593517f036b6384b5eca791c62761152d0c79bb0604c104a5fb6f4eb0703f3154bb3db18501805491909716981697909717909455517f036b6384b5eca791c62761152d0c79bb0604c104a5fb6f4eb0703f3154bb3db282015593517f036b6384b5eca791c62761152d0c79bb0604c104a5fb6f4eb0703f3154bb3db3909401939093559251919290917f7a48acc386aece1e204184f35fef46e19f8459bafec5faf62b405943608a42a19161062591889190918252602082015260400190565b60405180910390a35b9392505050565b6005546000906106575760405162461bcd60e51b815260040161037d90610e29565b6005805461066790600190610e6c565b8154811061067757610677610e13565b60009182526020909120600490910201546001600160a01b0316919050565b6106a383838360016107fb565b505050565b6001600160a01b03838116600090815260016020908152604080832093861683529290522054600019811015610721578181101561071257604051637dc7a0d960e11b81526001600160a01b0384166004820152602481018290526044810183905260640161037d565b610721848484840360006107fb565b50505050565b6001600160a01b03831661075157604051634b637e8f60e11b81526000600482015260240161037d565b6001600160a01b03821661077b5760405163ec442f0560e01b81526000600482015260240161037d565b6106a38383836108d0565b6060600080806107a161079c6201518087610e95565b6109fa565b9250925092506107b081610b6d565b6107b983610b6d565b6107c285610b6d565b6040516020016107d493929190610ea9565b6040516020818303038152906040529350505050919050565b6000336102f7818585610727565b6001600160a01b0384166108255760405163e602df0560e01b81526000600482015260240161037d565b6001600160a01b03831661084f57604051634a1406b160e11b81526000600482015260240161037d565b6001600160a01b038085166000908152600160209081526040808320938716835292905220829055801561072157826001600160a01b0316846001600160a01b03167f8c5be1e5ebec7d5bd14f71427d1e84f3dd0314c0f7b2291e5b200ac8c7c3b925846040516108c291815260200190565b60405180910390a350505050565b6001600160a01b0383166108fb5780600260008282546108f09190610f03565b9091555061096d9050565b6001600160a01b0383166000908152602081905260409020548181101561094e5760405163391434e360e21b81526001600160a01b0385166004820152602481018290526044810183905260640161037d565b6001600160a01b03841660009081526020819052604090209082900390555b6001600160a01b038216610989576002805482900390556109a8565b6001600160a01b03821660009081526020819052604090208054820190555b816001600160a01b0316836001600160a01b03167fddf252ad1be2c89b69c2b068fc378daa952ba7f163c4a11628f55a4df523b3ef836040516109ed91815260200190565b60405180910390a3505050565b600080808381610a0d8262010bd9610f16565b610a1a9062253d8c610f16565b9050600062023ab1610a2d836004610f3e565b610a379190610f6e565b90506004610a488262023ab1610f3e565b610a53906003610f16565b610a5d9190610f6e565b610a679083610f9c565b9150600062164b09610a7a846001610f16565b610a8690610fa0610f3e565b610a909190610f6e565b90506004610aa0826105b5610f3e565b610aaa9190610f6e565b610ab49084610f9c565b610abf90601f610f16565b9250600061098f610ad1856050610f3e565b610adb9190610f6e565b905060006050610aed8361098f610f3e565b610af79190610f6e565b610b019086610f9c565b9050610b0e600b83610f6e565b9450610b1b85600c610f3e565b610b26836002610f16565b610b309190610f9c565b91508483610b3f603187610f9c565b610b4a906064610f3e565b610b549190610f16565b610b5e9190610f16565b9a919950975095505050505050565b606081600003610b945750506040805180820190915260018152600360fc1b602082015290565b8160005b8115610bbe5780610ba881610fc3565b9150610bb79050600a83610e95565b9150610b98565b60008167ffffffffffffffff811115610bd957610bd9610fdc565b6040519080825280601f01601f191660200182016040528015610c03576020820181803683370190505b509050815b8515610c9057610c19600182610e6c565b90506000610c28600a88610e95565b610c3390600a610ff2565b610c3d9088610e6c565b610c48906030611009565b905060008160f81b905080848481518110610c6557610c65610e13565b60200101906001600160f81b031916908160001a905350610c87600a89610e95565b97505050610c08565b50949350505050565b60005b83811015610cb4578181015183820152602001610c9c565b50506000910152565b6020815260008251806020840152610cdc816040850160208701610c99565b601f01601f19169190910160400192915050565b80356001600160a01b0381168114610d0757600080fd5b919050565b60008060408385031215610d1f57600080fd5b610d2883610cf0565b946020939093013593505050565b600080600060608486031215610d4b57600080fd5b610d5484610cf0565b9250610d6260208501610cf0565b9150604084013590509250925092565b600060208284031215610d8457600080fd5b5035919050565b600060208284031215610d9d57600080fd5b61062e82610cf0565b60008060408385031215610db957600080fd5b610dc283610cf0565b9150610dd060208401610cf0565b90509250929050565b600181811c90821680610ded57607f821691505b602082108103610e0d57634e487b7160e01b600052602260045260246000fd5b50919050565b634e487b7160e01b600052603260045260246000fd5b602080825260139082015272139bc81d1c985b9cd858dd1a5bdb9cc81e595d606a1b604082015260600190565b634e487b7160e01b600052601160045260246000fd5b818103818111156102fd576102fd610e56565b634e487b7160e01b600052601260045260246000fd5b600082610ea457610ea4610e7f565b500490565b60008451610ebb818460208901610c99565b8083019050602d60f81b8082528551610edb816001850160208a01610c99565b60019201918201528351610ef6816002840160208801610c99565b0160020195945050505050565b808201808211156102fd576102fd610e56565b8082018281126000831280158216821582161715610f3657610f36610e56565b505092915050565b80820260008212600160ff1b84141615610f5a57610f5a610e56565b81810583148215176102fd576102fd610e56565b600082610f7d57610f7d610e7f565b600160ff1b821460001984141615610f9757610f97610e56565b500590565b8181036000831280158383131683831282161715610fbc57610fbc610e56565b5092915050565b600060018201610fd557610fd5610e56565b5060010190565b634e487b7160e01b600052604160045260246000fd5b80820281158282048414176102fd576102fd610e56565b60ff81811683821601908111156102fd576102fd610e5656fea2646970667358221220f74ffbfba36583c3f4c7fe57f45b2835ff543d8082d41c58d69e18539d3247bf64736f6c63430008140033","opcodes":"PUSH1 0x80 PUSH1 0x40 MSTORE CALLVALUE DUP1 ISZERO PUSH3 0x11 JUMPI PUSH1 0x0 DUP1 REVERT JUMPDEST POP PUSH1 0x40 MLOAD PUSH3 0x158D CODESIZE SUB DUP1 PUSH3 0x158D DUP4 CODECOPY DUP2 ADD PUSH1 0x40 DUP2 SWAP1 MSTORE PUSH3 0x34 SWAP2 PUSH3 0x23D JUMP JUMPDEST PUSH1 0x40 MLOAD DUP1 PUSH1 0x40 ADD PUSH1 0x40 MSTORE DUP1 PUSH1 0xA DUP2 MSTORE PUSH1 0x20 ADD PUSH10 0x4169747553453233323 PUSH1 0xB4 SHL DUP2 MSTORE POP PUSH1 0x40 MLOAD DUP1 PUSH1 0x40 ADD PUSH1 0x40 MSTORE DUP1 PUSH1 0x4 DUP2 MSTORE PUSH1 0x20 ADD PUSH4 0x41495455 PUSH1 0xE0 SHL DUP2 MSTORE POP DUP2 PUSH1 0x3 SWAP1 DUP2 PUSH3 0x85 SWAP2 SWAP1 PUSH3 0x2FC JUMP JUMPDEST POP PUSH1 0x4 PUSH3 0x94 DUP3 DUP3 PUSH3 0x2FC JUMP JUMPDEST POP POP POP PUSH1 0x6 DUP2 SWAP1 SSTORE PUSH3 0xC1 CALLER PUSH3 0xAF PUSH1 0x12 PUSH1 0xA PUSH3 0x4DD JUMP JUMPDEST PUSH3 0xBB SWAP1 DUP5 PUSH3 0x4F5 JUMP JUMPDEST PUSH3 0xC8 JUMP JUMPDEST POP PUSH3 0x525 JUMP JUMPDEST PUSH1 0x1 PUSH1 0x1 PUSH1 0xA0 SHL SUB DUP3 AND PUSH3 0xF8 JUMPI PUSH1 0x40 MLOAD PUSH4 0xEC442F05 PUSH1 0xE0 SHL DUP2 MSTORE PUSH1 0x0 PUSH1 0x4 DUP3 ADD MSTORE PUSH1 0x24 ADD JUMPDEST PUSH1 0x40 MLOAD DUP1 SWAP2 SUB SWAP1 REVERT JUMPDEST PUSH3 0x106 PUSH1 0x0 DUP4 DUP4 PUSH3 0x10A JUMP JUMPDEST POP POP JUMP JUMPDEST PUSH1 0x1 PUSH1 0x1 PUSH1 0xA0 SHL SUB DUP4 AND PUSH3 0x139 JUMPI DUP1 PUSH1 0x2 PUSH1 0x0 DUP3 DUP3 SLOAD PUSH3 0x12D SWAP2 SWAP1 PUSH3 0x50F JUMP JUMPDEST SWAP1 SWAP2 SSTORE POP PUSH3 0x1AD SWAP1 POP JUMP JUMPDEST PUSH1 0x1 PUSH1 0x1 PUSH1 0xA0 SHL SUB DUP4 AND PUSH1 0x0 SWAP1 DUP2 MSTORE PUSH1 0x20 DUP2 SWAP1 MSTORE PUSH1 0x40 SWAP1 KECCAK256 SLOAD DUP2 DUP2 LT ISZERO PUSH3 0x18E JUMPI PUSH1 0x40 MLOAD PUSH4 0x391434E3 PUSH1 0xE2 SHL DUP2 MSTORE PUSH1 0x1 PUSH1 0x1 PUSH1 0xA0 SHL SUB DUP6 AND PUSH1 0x4 DUP3 ADD MSTORE PUSH1 0x24 DUP2 ADD DUP3 SWAP1 MSTORE PUSH1 0x44 DUP2 ADD DUP4 SWAP1 MSTORE PUSH1 0x64 ADD PUSH3 0xEF JUMP JUMPDEST PUSH1 0x1 PUSH1 0x1 PUSH1 0xA0 SHL SUB DUP5 AND PUSH1 0x0 SWAP1 DUP2 MSTORE PUSH1 0x20 DUP2 SWAP1 MSTORE PUSH1 0x40 SWAP1 KECCAK256 SWAP1 DUP3 SWAP1 SUB SWAP1 SSTORE JUMPDEST PUSH1 0x1 PUSH1 0x1 PUSH1 0xA0 SHL SUB DUP3 AND PUSH3 0x1CB JUMPI PUSH1 0x2 DUP1 SLOAD DUP3 SWAP1 SUB SWAP1 SSTORE PUSH3 0x1EA JUMP JUMPDEST PUSH1 0x1 PUSH1 0x1 PUSH1 0xA0 SHL SUB DUP3 AND PUSH1 0x0 SWAP1 DUP2 MSTORE PUSH1 0x20 DUP2 SWAP1 MSTORE PUSH1 0x40 SWAP1 KECCAK256 DUP1 SLOAD DUP3 ADD SWAP1 SSTORE JUMPDEST DUP2 PUSH1 0x1 PUSH1 0x1 PUSH1 0xA0 SHL SUB AND DUP4 PUSH1 0x1 PUSH1 0x1 PUSH1 0xA0 SHL SUB AND PUSH32 0xDDF252AD1BE2C89B69C2B068FC378DAA952BA7F163C4A11628F55A4DF523B3EF DUP4 PUSH1 0x40 MLOAD PUSH3 0x230 SWAP2 DUP2 MSTORE PUSH1 0x20 ADD SWAP1 JUMP JUMPDEST PUSH1 0x40 MLOAD DUP1 SWAP2 SUB SWAP1 LOG3 POP POP POP JUMP JUMPDEST PUSH1 0x0 PUSH1 0x20 DUP3 DUP5 SUB SLT ISZERO PUSH3 0x250 JUMPI PUSH1 0x0 DUP1 REVERT JUMPDEST POP MLOAD SWAP2 SWAP1 POP JUMP JUMPDEST PUSH4 0x4E487B71 PUSH1 0xE0 SHL PUSH1 0x0 MSTORE PUSH1 0x41 PUSH1 0x4 MSTORE PUSH1 0x24 PUSH1 0x0 REVERT JUMPDEST PUSH1 0x1 DUP2 DUP2 SHR SWAP1 DUP3 AND DUP1 PUSH3 0x282 JUMPI PUSH1 0x7F DUP3 AND SWAP2 POP JUMPDEST PUSH1 0x20 DUP3 LT DUP2 SUB PUSH3 0x2A3 JUMPI PUSH4 0x4E487B71 PUSH1 0xE0 SHL PUSH1 0x0 MSTORE PUSH1 0x22 PUSH1 0x4 MSTORE PUSH1 0x24 PUSH1 0x0 REVERT JUMPDEST POP SWAP2 SWAP1 POP JUMP JUMPDEST PUSH1 0x1F DUP3 GT ISZERO PUSH3 0x2F7 JUMPI PUSH1 0x0 DUP2 DUP2 MSTORE PUSH1 0x20 DUP2 KECCAK256 PUSH1 0x1F DUP6 ADD PUSH1 0x5 SHR DUP2 ADD PUSH1 0x20 DUP7 LT ISZERO PUSH3 0x2D2 JUMPI POP DUP1 JUMPDEST PUSH1 0x1F DUP6 ADD PUSH1 0x5 SHR DUP3 ADD SWAP2 POP JUMPDEST DUP2 DUP2 LT ISZERO PUSH3 0x2F3 JUMPI DUP3 DUP2 SSTORE PUSH1 0x1 ADD PUSH3 0x2DE JUMP JUMPDEST POP POP POP JUMPDEST POP POP POP JUMP JUMPDEST DUP2 MLOAD PUSH1 0x1 PUSH1 0x1 PUSH1 0x40 SHL SUB DUP2 GT ISZERO PUSH3 0x318 JUMPI PUSH3 0x318 PUSH3 0x257 JUMP JUMPDEST PUSH3 0x330 DUP2 PUSH3 0x329 DUP5 SLOAD PUSH3 0x26D JUMP JUMPDEST DUP5 PUSH3 0x2A9 JUMP JUMPDEST PUSH1 0x20 DUP1 PUSH1 0x1F DUP4 GT PUSH1 0x1 DUP2 EQ PUSH3 0x368 JUMPI PUSH1 0x0 DUP5 ISZERO PUSH3 0x34F JUMPI POP DUP6 DUP4 ADD MLOAD JUMPDEST PUSH1 0x0 NOT PUSH1 0x3 DUP7 SWAP1 SHL SHR NOT AND PUSH1 0x1 DUP6 SWAP1 SHL OR DUP6 SSTORE PUSH3 0x2F3 JUMP JUMPDEST PUSH1 0x0 DUP6 DUP2 MSTORE PUSH1 0x20 DUP2 KECCAK256 PUSH1 0x1F NOT DUP7 AND SWAP2 JUMPDEST DUP3 DUP2 LT ISZERO PUSH3 0x399 JUMPI DUP9 DUP7 ADD MLOAD DUP3 SSTORE SWAP5 DUP5 ADD SWAP5 PUSH1 0x1 SWAP1 SWAP2 ADD SWAP1 DUP5 ADD PUSH3 0x378 JUMP JUMPDEST POP DUP6 DUP3 LT ISZERO PUSH3 0x3B8 JUMPI DUP8 DUP6 ADD MLOAD PUSH1 0x0 NOT PUSH1 0x3 DUP9 SWAP1 SHL PUSH1 0xF8 AND SHR NOT AND DUP2 SSTORE JUMPDEST POP POP POP POP POP PUSH1 0x1 SWAP1 DUP2 SHL ADD SWAP1 SSTORE POP JUMP JUMPDEST PUSH4 0x4E487B71 PUSH1 0xE0 SHL PUSH1 0x0 MSTORE PUSH1 0x11 PUSH1 0x4 MSTORE PUSH1 0x24 PUSH1 0x0 REVERT JUMPDEST PUSH1 0x1 DUP2 DUP2 JUMPDEST DUP1 DUP6 GT ISZERO PUSH3 0x41F JUMPI DUP2 PUSH1 0x0 NOT DIV DUP3 GT ISZERO PUSH3 0x403 JUMPI PUSH3 0x403 PUSH3 0x3C8 JUMP JUMPDEST DUP1 DUP6 AND ISZERO PUSH3 0x411 JUMPI SWAP2 DUP2 MUL SWAP2 JUMPDEST SWAP4 DUP5 SHR SWAP4 SWAP1 DUP1 MUL SWAP1 PUSH3 0x3E3 JUMP JUMPDEST POP SWAP3 POP SWAP3 SWAP1 POP JUMP JUMPDEST PUSH1 0x0 DUP3 PUSH3 0x438 JUMPI POP PUSH1 0x1 PUSH3 0x4D7 JUMP JUMPDEST DUP2 PUSH3 0x447 JUMPI POP PUSH1 0x0 PUSH3 0x4D7 JUMP JUMPDEST DUP2 PUSH1 0x1 DUP2 EQ PUSH3 0x460 JUMPI PUSH1 0x2 DUP2 EQ PUSH3 0x46B JUMPI PUSH3 0x48B JUMP JUMPDEST PUSH1 0x1 SWAP2 POP POP PUSH3 0x4D7 JUMP JUMPDEST PUSH1 0xFF DUP5 GT ISZERO PUSH3 0x47F JUMPI PUSH3 0x47F PUSH3 0x3C8 JUMP JUMPDEST POP POP PUSH1 0x1 DUP3 SHL PUSH3 0x4D7 JUMP JUMPDEST POP PUSH1 0x20 DUP4 LT PUSH2 0x133 DUP4 LT AND PUSH1 0x4E DUP5 LT PUSH1 0xB DUP5 LT AND OR ISZERO PUSH3 0x4B0 JUMPI POP DUP2 DUP2 EXP PUSH3 0x4D7 JUMP JUMPDEST PUSH3 0x4BC DUP4 DUP4 PUSH3 0x3DE JUMP JUMPDEST DUP1 PUSH1 0x0 NOT DIV DUP3 GT ISZERO PUSH3 0x4D3 JUMPI PUSH3 0x4D3 PUSH3 0x3C8 JUMP JUMPDEST MUL SWAP1 POP JUMPDEST SWAP3 SWAP2 POP POP JUMP JUMPDEST PUSH1 0x0 PUSH3 0x4EE PUSH1 0xFF DUP5 AND DUP4 PUSH3 0x427 JUMP JUMPDEST SWAP4 SWAP3 POP POP POP JUMP JUMPDEST DUP1 DUP3 MUL DUP2 ISZERO DUP3 DUP3 DIV DUP5 EQ OR PUSH3 0x4D7 JUMPI PUSH3 0x4D7 PUSH3 0x3C8 JUMP JUMPDEST DUP1 DUP3 ADD DUP1 DUP3 GT ISZERO PUSH3 0x4D7 JUMPI PUSH3 0x4D7 PUSH3 0x3C8 JUMP JUMPDEST PUSH2 0x1058 DUP1 PUSH3 0x535 PUSH1 0x0 CODECOPY PUSH1 0x0 RETURN INVALID PUSH1 0x80 PUSH1 0x40 MSTORE CALLVALUE DUP1 ISZERO PUSH2 0x10 JUMPI PUSH1 0x0 DUP1 REVERT JUMPDEST POP PUSH1 0x4 CALLDATASIZE LT PUSH2 0xEA JUMPI PUSH1 0x0 CALLDATALOAD PUSH1 0xE0 SHR DUP1 PUSH4 0x70A08231 GT PUSH2 0x8C JUMPI DUP1 PUSH4 0x95D89B41 GT PUSH2 0x66 JUMPI DUP1 PUSH4 0x95D89B41 EQ PUSH2 0x1FB JUMPI DUP1 PUSH4 0xA9059CBB EQ PUSH2 0x203 JUMPI DUP1 PUSH4 0xBEAD3F50 EQ PUSH2 0x216 JUMPI DUP1 PUSH4 0xDD62ED3E EQ PUSH2 0x21E JUMPI PUSH1 0x0 DUP1 REVERT JUMPDEST DUP1 PUSH4 0x70A08231 EQ PUSH2 0x1AA JUMPI DUP1 PUSH4 0x81CCF4C4 EQ PUSH2 0x1D3 JUMPI DUP1 PUSH4 0x841B39FC EQ PUSH2 0x1DB JUMPI PUSH1 0x0 DUP1 REVERT JUMPDEST DUP1 PUSH4 0x1A80BE61 GT PUSH2 0xC8 JUMPI DUP1 PUSH4 0x1A80BE61 EQ PUSH2 0x142 JUMPI DUP1 PUSH4 0x23B872DD EQ PUSH2 0x14A JUMPI DUP1 PUSH4 0x313CE567 EQ PUSH2 0x15D JUMPI DUP1 PUSH4 0x33EA3DC8 EQ PUSH2 0x16C JUMPI PUSH1 0x0 DUP1 REVERT JUMPDEST DUP1 PUSH4 0x6FDDE03 EQ PUSH2 0xEF JUMPI DUP1 PUSH4 0x95EA7B3 EQ PUSH2 0x10D JUMPI DUP1 PUSH4 0x18160DDD EQ PUSH2 0x130 JUMPI JUMPDEST PUSH1 0x0 DUP1 REVERT JUMPDEST PUSH2 0xF7 PUSH2 0x257 JUMP JUMPDEST PUSH1 0x40 MLOAD PUSH2 0x104 SWAP2 SWAP1 PUSH2 0xCBD JUMP JUMPDEST PUSH1 0x40 MLOAD DUP1 SWAP2 SUB SWAP1 RETURN JUMPDEST PUSH2 0x120 PUSH2 0x11B CALLDATASIZE PUSH1 0x4 PUSH2 0xD0C JUMP JUMPDEST PUSH2 0x2E9 JUMP JUMPDEST PUSH1 0x40 MLOAD SWAP1 ISZERO ISZERO DUP2 MSTORE PUSH1 0x20 ADD PUSH2 0x104 JUMP JUMPDEST PUSH1 0x2 SLOAD JUMPDEST PUSH1 0x40 MLOAD SWAP1 DUP2 MSTORE PUSH1 0x20 ADD PUSH2 0x104 JUMP JUMPDEST PUSH1 0x6 SLOAD PUSH2 0x134 JUMP JUMPDEST PUSH2 0x120 PUSH2 0x158 CALLDATASIZE PUSH1 0x4 PUSH2 0xD36 JUMP JUMPDEST PUSH2 0x303 JUMP JUMPDEST PUSH1 0x40 MLOAD PUSH1 0x12 DUP2 MSTORE PUSH1 0x20 ADD PUSH2 0x104 JUMP JUMPDEST PUSH2 0x17F PUSH2 0x17A CALLDATASIZE PUSH1 0x4 PUSH2 0xD72 JUMP JUMPDEST PUSH2 0x327 JUMP JUMPDEST PUSH1 0x40 DUP1 MLOAD PUSH1 0x1 PUSH1 0x1 PUSH1 0xA0 SHL SUB SWAP6 DUP7 AND DUP2 MSTORE SWAP5 SWAP1 SWAP4 AND PUSH1 0x20 DUP6 ADD MSTORE SWAP2 DUP4 ADD MSTORE PUSH1 0x60 DUP3 ADD MSTORE PUSH1 0x80 ADD PUSH2 0x104 JUMP JUMPDEST PUSH2 0x134 PUSH2 0x1B8 CALLDATASIZE PUSH1 0x4 PUSH2 0xD8B JUMP JUMPDEST PUSH1 0x1 PUSH1 0x1 PUSH1 0xA0 SHL SUB AND PUSH1 0x0 SWAP1 DUP2 MSTORE PUSH1 0x20 DUP2 SWAP1 MSTORE PUSH1 0x40 SWAP1 KECCAK256 SLOAD SWAP1 JUMP JUMPDEST PUSH2 0xF7 PUSH2 0x3FE JUMP JUMPDEST PUSH2 0x1E3 PUSH2 0x461 JUMP JUMPDEST PUSH1 0x40 MLOAD PUSH1 0x1 PUSH1 0x1 PUSH1 0xA0 SHL SUB SWAP1 SWAP2 AND DUP2 MSTORE PUSH1 0x20 ADD PUSH2 0x104 JUMP JUMPDEST PUSH2 0xF7 PUSH2 0x4C5 JUMP JUMPDEST PUSH2 0x120 PUSH2 0x211 CALLDATASIZE PUSH1 0x4 PUSH2 0xD0C JUMP JUMPDEST PUSH2 0x4D4 JUMP JUMPDEST PUSH2 0x1E3 PUSH2 0x635 JUMP JUMPDEST PUSH2 0x134 PUSH2 0x22C CALLDATASIZE PUSH1 0x4 PUSH2 0xDA6 JUMP JUMPDEST PUSH1 0x1 PUSH1 0x1 PUSH1 0xA0 SHL SUB SWAP2 DUP3 AND PUSH1 0x0 SWAP1 DUP2 MSTORE PUSH1 0x1 PUSH1 0x20 SWAP1 DUP2 MSTORE PUSH1 0x40 DUP1 DUP4 KECCAK256 SWAP4 SWAP1 SWAP5 AND DUP3 MSTORE SWAP2 SWAP1 SWAP2 MSTORE KECCAK256 SLOAD SWAP1 JUMP JUMPDEST PUSH1 0x60 PUSH1 0x3 DUP1 SLOAD PUSH2 0x266 SWAP1 PUSH2 0xDD9 JUMP JUMPDEST DUP1 PUSH1 0x1F ADD PUSH1 0x20 DUP1 SWAP2 DIV MUL PUSH1 0x20 ADD PUSH1 0x40 MLOAD SWAP1 DUP2 ADD PUSH1 0x40 MSTORE DUP1 SWAP3 SWAP2 SWAP1 DUP2 DUP2 MSTORE PUSH1 0x20 ADD DUP3 DUP1 SLOAD PUSH2 0x292 SWAP1 PUSH2 0xDD9 JUMP JUMPDEST DUP1 ISZERO PUSH2 0x2DF JUMPI DUP1 PUSH1 0x1F LT PUSH2 0x2B4 JUMPI PUSH2 0x100 DUP1 DUP4 SLOAD DIV MUL DUP4 MSTORE SWAP2 PUSH1 0x20 ADD SWAP2 PUSH2 0x2DF JUMP JUMPDEST DUP3 ADD SWAP2 SWAP1 PUSH1 0x0 MSTORE PUSH1 0x20 PUSH1 0x0 KECCAK256 SWAP1 JUMPDEST DUP2 SLOAD DUP2 MSTORE SWAP1 PUSH1 0x1 ADD SWAP1 PUSH1 0x20 ADD DUP1 DUP4 GT PUSH2 0x2C2 JUMPI DUP3 SWAP1 SUB PUSH1 0x1F AND DUP3 ADD SWAP2 JUMPDEST POP POP POP POP POP SWAP1 POP SWAP1 JUMP JUMPDEST PUSH1 0x0 CALLER PUSH2 0x2F7 DUP2 DUP6 DUP6 PUSH2 0x696 JUMP JUMPDEST PUSH1 0x1 SWAP2 POP POP JUMPDEST SWAP3 SWAP2 POP POP JUMP JUMPDEST PUSH1 0x0 CALLER PUSH2 0x311 DUP6 DUP3 DUP6 PUSH2 0x6A8 JUMP JUMPDEST PUSH2 0x31C DUP6 DUP6 DUP6 PUSH2 0x727 JUMP JUMPDEST POP PUSH1 0x1 SWAP5 SWAP4 POP POP POP POP JUMP JUMPDEST PUSH1 0x0 DUP1 PUSH1 0x0 DUP1 PUSH1 0x5 DUP1 SLOAD SWAP1 POP DUP6 LT PUSH2 0x386 JUMPI PUSH1 0x40 MLOAD PUSH3 0x461BCD PUSH1 0xE5 SHL DUP2 MSTORE PUSH1 0x20 PUSH1 0x4 DUP3 ADD MSTORE PUSH1 0x1A PUSH1 0x24 DUP3 ADD MSTORE PUSH32 0x5472616E73616374696F6E20646F6573206E6F74206578697374000000000000 PUSH1 0x44 DUP3 ADD MSTORE PUSH1 0x64 ADD JUMPDEST PUSH1 0x40 MLOAD DUP1 SWAP2 SUB SWAP1 REVERT JUMPDEST PUSH1 0x0 PUSH1 0x5 DUP7 DUP2 SLOAD DUP2 LT PUSH2 0x39B JUMPI PUSH2 0x39B PUSH2 0xE13 JUMP JUMPDEST PUSH1 0x0 SWAP2 DUP3 MSTORE PUSH1 0x20 SWAP2 DUP3 SWAP1 KECCAK256 PUSH1 0x40 DUP1 MLOAD PUSH1 0x80 DUP2 ADD DUP3 MSTORE PUSH1 0x4 SWAP4 SWAP1 SWAP4 MUL SWAP1 SWAP2 ADD DUP1 SLOAD PUSH1 0x1 PUSH1 0x1 PUSH1 0xA0 SHL SUB SWAP1 DUP2 AND DUP1 DUP6 MSTORE PUSH1 0x1 DUP4 ADD SLOAD SWAP1 SWAP2 AND SWAP5 DUP5 ADD DUP6 SWAP1 MSTORE PUSH1 0x2 DUP3 ADD SLOAD SWAP3 DUP5 ADD DUP4 SWAP1 MSTORE PUSH1 0x3 SWAP1 SWAP2 ADD SLOAD PUSH1 0x60 SWAP1 SWAP4 ADD DUP4 SWAP1 MSTORE SWAP10 SWAP3 SWAP9 POP SWAP7 POP SWAP5 POP SWAP3 POP POP POP JUMP JUMPDEST PUSH1 0x5 SLOAD PUSH1 0x60 SWAP1 PUSH2 0x420 JUMPI PUSH1 0x40 MLOAD PUSH3 0x461BCD PUSH1 0xE5 SHL DUP2 MSTORE PUSH1 0x4 ADD PUSH2 0x37D SWAP1 PUSH2 0xE29 JUMP JUMPDEST PUSH1 0x5 DUP1 SLOAD PUSH2 0x45C SWAP2 SWAP1 PUSH2 0x435 SWAP1 PUSH1 0x1 SWAP1 PUSH2 0xE6C JUMP JUMPDEST DUP2 SLOAD DUP2 LT PUSH2 0x445 JUMPI PUSH2 0x445 PUSH2 0xE13 JUMP JUMPDEST SWAP1 PUSH1 0x0 MSTORE PUSH1 0x20 PUSH1 0x0 KECCAK256 SWAP1 PUSH1 0x4 MUL ADD PUSH1 0x3 ADD SLOAD PUSH2 0x786 JUMP JUMPDEST SWAP1 POP SWAP1 JUMP JUMPDEST PUSH1 0x5 SLOAD PUSH1 0x0 SWAP1 PUSH2 0x483 JUMPI PUSH1 0x40 MLOAD PUSH3 0x461BCD PUSH1 0xE5 SHL DUP2 MSTORE PUSH1 0x4 ADD PUSH2 0x37D SWAP1 PUSH2 0xE29 JUMP JUMPDEST PUSH1 0x5 DUP1 SLOAD PUSH2 0x493 SWAP1 PUSH1 0x1 SWAP1 PUSH2 0xE6C JUMP JUMPDEST DUP2 SLOAD DUP2 LT PUSH2 0x4A3 JUMPI PUSH2 0x4A3 PUSH2 0xE13 JUMP JUMPDEST PUSH1 0x0 SWAP2 DUP3 MSTORE PUSH1 0x20 SWAP1 SWAP2 KECCAK256 PUSH1 0x1 PUSH1 0x4 SWAP1 SWAP3 MUL ADD ADD SLOAD PUSH1 0x1 PUSH1 0x1 PUSH1 0xA0 SHL SUB AND SWAP2 SWAP1 POP JUMP JUMPDEST PUSH1 0x60 PUSH1 0x4 DUP1 SLOAD PUSH2 0x266 SWAP1 PUSH2 0xDD9 JUMP JUMPDEST PUSH1 0x0 DUP1 PUSH2 0x4E1 DUP5 DUP5 PUSH2 0x7ED JUMP JUMPDEST SWAP1 POP DUP1 ISZERO PUSH2 0x62E JUMPI PUSH1 0x40 DUP1 MLOAD PUSH1 0x80 DUP2 ADD DUP3 MSTORE CALLER DUP1 DUP3 MSTORE PUSH1 0x1 PUSH1 0x1 PUSH1 0xA0 SHL SUB DUP8 DUP2 AND PUSH1 0x20 DUP5 ADD DUP2 DUP2 MSTORE DUP5 DUP7 ADD DUP10 DUP2 MSTORE TIMESTAMP PUSH1 0x60 DUP8 ADD DUP2 DUP2 MSTORE PUSH1 0x5 DUP1 SLOAD PUSH1 0x1 DUP2 ADD DUP3 SSTORE PUSH1 0x0 SWAP2 SWAP1 SWAP2 MSTORE SWAP8 MLOAD PUSH1 0x4 SWAP1 SWAP9 MUL PUSH32 0x36B6384B5ECA791C62761152D0C79BB0604C104A5FB6F4EB0703F3154BB3DB0 DUP2 ADD DUP1 SLOAD SWAP10 DUP9 AND PUSH1 0x1 PUSH1 0x1 PUSH1 0xA0 SHL SUB NOT SWAP11 DUP12 AND OR SWAP1 SSTORE SWAP4 MLOAD PUSH32 0x36B6384B5ECA791C62761152D0C79BB0604C104A5FB6F4EB0703F3154BB3DB1 DUP6 ADD DUP1 SLOAD SWAP2 SWAP1 SWAP8 AND SWAP9 AND SWAP8 SWAP1 SWAP8 OR SWAP1 SWAP5 SSTORE MLOAD PUSH32 0x36B6384B5ECA791C62761152D0C79BB0604C104A5FB6F4EB0703F3154BB3DB2 DUP3 ADD SSTORE SWAP4 MLOAD PUSH32 0x36B6384B5ECA791C62761152D0C79BB0604C104A5FB6F4EB0703F3154BB3DB3 SWAP1 SWAP5 ADD SWAP4 SWAP1 SWAP4 SSTORE SWAP3 MLOAD SWAP2 SWAP3 SWAP1 SWAP2 PUSH32 0x7A48ACC386AECE1E204184F35FEF46E19F8459BAFEC5FAF62B405943608A42A1 SWAP2 PUSH2 0x625 SWAP2 DUP9 SWAP2 SWAP1 SWAP2 DUP3 MSTORE PUSH1 0x20 DUP3 ADD MSTORE PUSH1 0x40 ADD SWAP1 JUMP JUMPDEST PUSH1 0x40 MLOAD DUP1 SWAP2 SUB SWAP1 LOG3 JUMPDEST SWAP4 SWAP3 POP POP POP JUMP JUMPDEST PUSH1 0x5 SLOAD PUSH1 0x0 SWAP1 PUSH2 0x657 JUMPI PUSH1 0x40 MLOAD PUSH3 0x461BCD PUSH1 0xE5 SHL DUP2 MSTORE PUSH1 0x4 ADD PUSH2 0x37D SWAP1 PUSH2 0xE29 JUMP JUMPDEST PUSH1 0x5 DUP1 SLOAD PUSH2 0x667 SWAP1 PUSH1 0x1 SWAP1 PUSH2 0xE6C JUMP JUMPDEST DUP2 SLOAD DUP2 LT PUSH2 0x677 JUMPI PUSH2 0x677 PUSH2 0xE13 JUMP JUMPDEST PUSH1 0x0 SWAP2 DUP3 MSTORE PUSH1 0x20 SWAP1 SWAP2 KECCAK256 PUSH1 0x4 SWAP1 SWAP2 MUL ADD SLOAD PUSH1 0x1 PUSH1 0x1 PUSH1 0xA0 SHL SUB AND SWAP2 SWAP1 POP JUMP JUMPDEST PUSH2 0x6A3 DUP4 DUP4 DUP4 PUSH1 0x1 PUSH2 0x7FB JUMP JUMPDEST POP POP POP JUMP JUMPDEST PUSH1 0x1 PUSH1 0x1 PUSH1 0xA0 SHL SUB DUP4 DUP2 AND PUSH1 0x0 SWAP1 DUP2 MSTORE PUSH1 0x1 PUSH1 0x20 SWAP1 DUP2 MSTORE PUSH1 0x40 DUP1 DUP4 KECCAK256 SWAP4 DUP7 AND DUP4 MSTORE SWAP3 SWAP1 MSTORE KECCAK256 SLOAD PUSH1 0x0 NOT DUP2 LT ISZERO PUSH2 0x721 JUMPI DUP2 DUP2 LT ISZERO PUSH2 0x712 JUMPI PUSH1 0x40 MLOAD PUSH4 0x7DC7A0D9 PUSH1 0xE1 SHL DUP2 MSTORE PUSH1 0x1 PUSH1 0x1 PUSH1 0xA0 SHL SUB DUP5 AND PUSH1 0x4 DUP3 ADD MSTORE PUSH1 0x24 DUP2 ADD DUP3 SWAP1 MSTORE PUSH1 0x44 DUP2 ADD DUP4 SWAP1 MSTORE PUSH1 0x64 ADD PUSH2 0x37D JUMP JUMPDEST PUSH2 0x721 DUP5 DUP5 DUP5 DUP5 SUB PUSH1 0x0 PUSH2 0x7FB JUMP JUMPDEST POP POP POP POP JUMP JUMPDEST PUSH1 0x1 PUSH1 0x1 PUSH1 0xA0 SHL SUB DUP4 AND PUSH2 0x751 JUMPI PUSH1 0x40 MLOAD PUSH4 0x4B637E8F PUSH1 0xE1 SHL DUP2 MSTORE PUSH1 0x0 PUSH1 0x4 DUP3 ADD MSTORE PUSH1 0x24 ADD PUSH2 0x37D JUMP JUMPDEST PUSH1 0x1 PUSH1 0x1 PUSH1 0xA0 SHL SUB DUP3 AND PUSH2 0x77B JUMPI PUSH1 0x40 MLOAD PUSH4 0xEC442F05 PUSH1 0xE0 SHL DUP2 MSTORE PUSH1 0x0 PUSH1 0x4 DUP3 ADD MSTORE PUSH1 0x24 ADD PUSH2 0x37D JUMP JUMPDEST PUSH2 0x6A3 DUP4 DUP4 DUP4 PUSH2 0x8D0 JUMP JUMPDEST PUSH1 0x60 PUSH1 0x0 DUP1 DUP1 PUSH2 0x7A1 PUSH2 0x79C PUSH3 0x15180 DUP8 PUSH2 0xE95 JUMP JUMPDEST PUSH2 0x9FA JUMP JUMPDEST SWAP3 POP SWAP3 POP SWAP3 POP PUSH2 0x7B0 DUP2 PUSH2 0xB6D JUMP JUMPDEST PUSH2 0x7B9 DUP4 PUSH2 0xB6D JUMP JUMPDEST PUSH2 0x7C2 DUP6 PUSH2 0xB6D JUMP JUMPDEST PUSH1 0x40 MLOAD PUSH1 0x20 ADD PUSH2 0x7D4 SWAP4 SWAP3 SWAP2 SWAP1 PUSH2 0xEA9 JUMP JUMPDEST PUSH1 0x40 MLOAD PUSH1 0x20 DUP2 DUP4 SUB SUB DUP2 MSTORE SWAP1 PUSH1 0x40 MSTORE SWAP4 POP POP POP POP SWAP2 SWAP1 POP JUMP JUMPDEST PUSH1 0x0 CALLER PUSH2 0x2F7 DUP2 DUP6 DUP6 PUSH2 0x727 JUMP JUMPDEST PUSH1 0x1 PUSH1 0x1 PUSH1 0xA0 SHL SUB DUP5 AND PUSH2 0x825 JUMPI PUSH1 0x40 MLOAD PUSH4 0xE602DF05 PUSH1 0xE0 SHL DUP2 MSTORE PUSH1 0x0 PUSH1 0x4 DUP3 ADD MSTORE PUSH1 0x24 ADD PUSH2 0x37D JUMP JUMPDEST PUSH1 0x1 PUSH1 0x1 PUSH1 0xA0 SHL SUB DUP4 AND PUSH2 0x84F JUMPI PUSH1 0x40 MLOAD PUSH4 0x4A1406B1 PUSH1 0xE1 SHL DUP2 MSTORE PUSH1 0x0 PUSH1 0x4 DUP3 ADD MSTORE PUSH1 0x24 ADD PUSH2 0x37D JUMP JUMPDEST PUSH1 0x1 PUSH1 0x1 PUSH1 0xA0 SHL SUB DUP1 DUP6 AND PUSH1 0x0 SWAP1 DUP2 MSTORE PUSH1 0x1 PUSH1 0x20 SWAP1 DUP2 MSTORE PUSH1 0x40 DUP1 DUP4 KECCAK256 SWAP4 DUP8 AND DUP4 MSTORE SWAP3 SWAP1 MSTORE KECCAK256 DUP3 SWAP1 SSTORE DUP1 ISZERO PUSH2 0x721 JUMPI DUP3 PUSH1 0x1 PUSH1 0x1 PUSH1 0xA0 SHL SUB AND DUP5 PUSH1 0x1 PUSH1 0x1 PUSH1 0xA0 SHL SUB AND PUSH32 0x8C5BE1E5EBEC7D5BD14F71427D1E84F3DD0314C0F7B2291E5B200AC8C7C3B925 DUP5 PUSH1 0x40 MLOAD PUSH2 0x8C2 SWAP2 DUP2 MSTORE PUSH1 0x20 ADD SWAP1 JUMP JUMPDEST PUSH1 0x40 MLOAD DUP1 SWAP2 SUB SWAP1 LOG3 POP POP POP POP JUMP JUMPDEST PUSH1 0x1 PUSH1 0x1 PUSH1 0xA0 SHL SUB DUP4 AND PUSH2 0x8FB JUMPI DUP1 PUSH1 0x2 PUSH1 0x0 DUP3 DUP3 SLOAD PUSH2 0x8F0 SWAP2 SWAP1 PUSH2 0xF03 JUMP JUMPDEST SWAP1 SWAP2 SSTORE POP PUSH2 0x96D SWAP1 POP JUMP JUMPDEST PUSH1 0x1 PUSH1 0x1 PUSH1 0xA0 SHL SUB DUP4 AND PUSH1 0x0 SWAP1 DUP2 MSTORE PUSH1 0x20 DUP2 SWAP1 MSTORE PUSH1 0x40 SWAP1 KECCAK256 SLOAD DUP2 DUP2 LT ISZERO PUSH2 0x94E JUMPI PUSH1 0x40 MLOAD PUSH4 0x391434E3 PUSH1 0xE2 SHL DUP2 MSTORE PUSH1 0x1 PUSH1 0x1 PUSH1 0xA0 SHL SUB DUP6 AND PUSH1 0x4 DUP3 ADD MSTORE PUSH1 0x24 DUP2 ADD DUP3 SWAP1 MSTORE PUSH1 0x44 DUP2 ADD DUP4 SWAP1 MSTORE PUSH1 0x64 ADD PUSH2 0x37D JUMP JUMPDEST PUSH1 0x1 PUSH1 0x1 PUSH1 0xA0 SHL SUB DUP5 AND PUSH1 0x0 SWAP1 DUP2 MSTORE PUSH1 0x20 DUP2 SWAP1 MSTORE PUSH1 0x40 SWAP1 KECCAK256 SWAP1 DUP3 SWAP1 SUB SWAP1 SSTORE JUMPDEST PUSH1 0x1 PUSH1 0x1 PUSH1 0xA0 SHL SUB DUP3 AND PUSH2 0x989 JUMPI PUSH1 0x2 DUP1 SLOAD DUP3 SWAP1 SUB SWAP1 SSTORE PUSH2 0x9A8 JUMP JUMPDEST PUSH1 0x1 PUSH1 0x1 PUSH1 0xA0 SHL SUB DUP3 AND PUSH1 0x0 SWAP1 DUP2 MSTORE PUSH1 0x20 DUP2 SWAP1 MSTORE PUSH1 0x40 SWAP1 KECCAK256 DUP1 SLOAD DUP3 ADD SWAP1 SSTORE JUMPDEST DUP2 PUSH1 0x1 PUSH1 0x1 PUSH1 0xA0 SHL SUB AND DUP4 PUSH1 0x1 PUSH1 0x1 PUSH1 0xA0 SHL SUB AND PUSH32 0xDDF252AD1BE2C89B69C2B068FC378DAA952BA7F163C4A11628F55A4DF523B3EF DUP4 PUSH1 0x40 MLOAD PUSH2 0x9ED SWAP2 DUP2 MSTORE PUSH1 0x20 ADD SWAP1 JUMP JUMPDEST PUSH1 0x40 MLOAD DUP1 SWAP2 SUB SWAP1 LOG3 POP POP POP JUMP JUMPDEST PUSH1 0x0 DUP1 DUP1 DUP4 DUP2 PUSH2 0xA0D DUP3 PUSH3 0x10BD9 PUSH2 0xF16 JUMP JUMPDEST PUSH2 0xA1A SWAP1 PUSH3 0x253D8C PUSH2 0xF16 JUMP JUMPDEST SWAP1 POP PUSH1 0x0 PUSH3 0x23AB1 PUSH2 0xA2D DUP4 PUSH1 0x4 PUSH2 0xF3E JUMP JUMPDEST PUSH2 0xA37 SWAP2 SWAP1 PUSH2 0xF6E JUMP JUMPDEST SWAP1 POP PUSH1 0x4 PUSH2 0xA48 DUP3 PUSH3 0x23AB1 PUSH2 0xF3E JUMP JUMPDEST PUSH2 0xA53 SWAP1 PUSH1 0x3 PUSH2 0xF16 JUMP JUMPDEST PUSH2 0xA5D SWAP2 SWAP1 PUSH2 0xF6E JUMP JUMPDEST PUSH2 0xA67 SWAP1 DUP4 PUSH2 0xF9C JUMP JUMPDEST SWAP2 POP PUSH1 0x0 PUSH3 0x164B09 PUSH2 0xA7A DUP5 PUSH1 0x1 PUSH2 0xF16 JUMP JUMPDEST PUSH2 0xA86 SWAP1 PUSH2 0xFA0 PUSH2 0xF3E JUMP JUMPDEST PUSH2 0xA90 SWAP2 SWAP1 PUSH2 0xF6E JUMP JUMPDEST SWAP1 POP PUSH1 0x4 PUSH2 0xAA0 DUP3 PUSH2 0x5B5 PUSH2 0xF3E JUMP JUMPDEST PUSH2 0xAAA SWAP2 SWAP1 PUSH2 0xF6E JUMP JUMPDEST PUSH2 0xAB4 SWAP1 DUP5 PUSH2 0xF9C JUMP JUMPDEST PUSH2 0xABF SWAP1 PUSH1 0x1F PUSH2 0xF16 JUMP JUMPDEST SWAP3 POP PUSH1 0x0 PUSH2 0x98F PUSH2 0xAD1 DUP6 PUSH1 0x50 PUSH2 0xF3E JUMP JUMPDEST PUSH2 0xADB SWAP2 SWAP1 PUSH2 0xF6E JUMP JUMPDEST SWAP1 POP PUSH1 0x0 PUSH1 0x50 PUSH2 0xAED DUP4 PUSH2 0x98F PUSH2 0xF3E JUMP JUMPDEST PUSH2 0xAF7 SWAP2 SWAP1 PUSH2 0xF6E JUMP JUMPDEST PUSH2 0xB01 SWAP1 DUP7 PUSH2 0xF9C JUMP JUMPDEST SWAP1 POP PUSH2 0xB0E PUSH1 0xB DUP4 PUSH2 0xF6E JUMP JUMPDEST SWAP5 POP PUSH2 0xB1B DUP6 PUSH1 0xC PUSH2 0xF3E JUMP JUMPDEST PUSH2 0xB26 DUP4 PUSH1 0x2 PUSH2 0xF16 JUMP JUMPDEST PUSH2 0xB30 SWAP2 SWAP1 PUSH2 0xF9C JUMP JUMPDEST SWAP2 POP DUP5 DUP4 PUSH2 0xB3F PUSH1 0x31 DUP8 PUSH2 0xF9C JUMP JUMPDEST PUSH2 0xB4A SWAP1 PUSH1 0x64 PUSH2 0xF3E JUMP JUMPDEST PUSH2 0xB54 SWAP2 SWAP1 PUSH2 0xF16 JUMP JUMPDEST PUSH2 0xB5E SWAP2 SWAP1 PUSH2 0xF16 JUMP JUMPDEST SWAP11 SWAP2 SWAP10 POP SWAP8 POP SWAP6 POP POP POP POP POP POP JUMP JUMPDEST PUSH1 0x60 DUP2 PUSH1 0x0 SUB PUSH2 0xB94 JUMPI POP POP PUSH1 0x40 DUP1 MLOAD DUP1 DUP3 ADD SWAP1 SWAP2 MSTORE PUSH1 0x1 DUP2 MSTORE PUSH1 0x3 PUSH1 0xFC SHL PUSH1 0x20 DUP3 ADD MSTORE SWAP1 JUMP JUMPDEST DUP2 PUSH1 0x0 JUMPDEST DUP2 ISZERO PUSH2 0xBBE JUMPI DUP1 PUSH2 0xBA8 DUP2 PUSH2 0xFC3 JUMP JUMPDEST SWAP2 POP PUSH2 0xBB7 SWAP1 POP PUSH1 0xA DUP4 PUSH2 0xE95 JUMP JUMPDEST SWAP2 POP PUSH2 0xB98 JUMP JUMPDEST PUSH1 0x0 DUP2 PUSH8 0xFFFFFFFFFFFFFFFF DUP2 GT ISZERO PUSH2 0xBD9 JUMPI PUSH2 0xBD9 PUSH2 0xFDC JUMP JUMPDEST PUSH1 0x40 MLOAD SWAP1 DUP1 DUP3 MSTORE DUP1 PUSH1 0x1F ADD PUSH1 0x1F NOT AND PUSH1 0x20 ADD DUP3 ADD PUSH1 0x40 MSTORE DUP1 ISZERO PUSH2 0xC03 JUMPI PUSH1 0x20 DUP3 ADD DUP2 DUP1 CALLDATASIZE DUP4 CALLDATACOPY ADD SWAP1 POP JUMPDEST POP SWAP1 POP DUP2 JUMPDEST DUP6 ISZERO PUSH2 0xC90 JUMPI PUSH2 0xC19 PUSH1 0x1 DUP3 PUSH2 0xE6C JUMP JUMPDEST SWAP1 POP PUSH1 0x0 PUSH2 0xC28 PUSH1 0xA DUP9 PUSH2 0xE95 JUMP JUMPDEST PUSH2 0xC33 SWAP1 PUSH1 0xA PUSH2 0xFF2 JUMP JUMPDEST PUSH2 0xC3D SWAP1 DUP9 PUSH2 0xE6C JUMP JUMPDEST PUSH2 0xC48 SWAP1 PUSH1 0x30 PUSH2 0x1009 JUMP JUMPDEST SWAP1 POP PUSH1 0x0 DUP2 PUSH1 0xF8 SHL SWAP1 POP DUP1 DUP5 DUP5 DUP2 MLOAD DUP2 LT PUSH2 0xC65 JUMPI PUSH2 0xC65 PUSH2 0xE13 JUMP JUMPDEST PUSH1 0x20 ADD ADD SWAP1 PUSH1 0x1 PUSH1 0x1 PUSH1 0xF8 SHL SUB NOT AND SWAP1 DUP2 PUSH1 0x0 BYTE SWAP1 MSTORE8 POP PUSH2 0xC87 PUSH1 0xA DUP10 PUSH2 0xE95 JUMP JUMPDEST SWAP8 POP POP POP PUSH2 0xC08 JUMP JUMPDEST POP SWAP5 SWAP4 POP POP POP POP JUMP JUMPDEST PUSH1 0x0 JUMPDEST DUP4 DUP2 LT ISZERO PUSH2 0xCB4 JUMPI DUP2 DUP2 ADD MLOAD DUP4 DUP3 ADD MSTORE PUSH1 0x20 ADD PUSH2 0xC9C JUMP JUMPDEST POP POP PUSH1 0x0 SWAP2 ADD MSTORE JUMP JUMPDEST PUSH1 0x20 DUP2 MSTORE PUSH1 0x0 DUP3 MLOAD DUP1 PUSH1 0x20 DUP5 ADD MSTORE PUSH2 0xCDC DUP2 PUSH1 0x40 DUP6 ADD PUSH1 0x20 DUP8 ADD PUSH2 0xC99 JUMP JUMPDEST PUSH1 0x1F ADD PUSH1 0x1F NOT AND SWAP2 SWAP1 SWAP2 ADD PUSH1 0x40 ADD SWAP3 SWAP2 POP POP JUMP JUMPDEST DUP1 CALLDATALOAD PUSH1 0x1 PUSH1 0x1 PUSH1 0xA0 SHL SUB DUP2 AND DUP2 EQ PUSH2 0xD07 JUMPI PUSH1 0x0 DUP1 REVERT JUMPDEST SWAP2 SWAP1 POP JUMP JUMPDEST PUSH1 0x0 DUP1 PUSH1 0x40 DUP4 DUP6 SUB SLT ISZERO PUSH2 0xD1F JUMPI PUSH1 0x0 DUP1 REVERT JUMPDEST PUSH2 0xD28 DUP4 PUSH2 0xCF0 JUMP JUMPDEST SWAP5 PUSH1 0x20 SWAP4 SWAP1 SWAP4 ADD CALLDATALOAD SWAP4 POP POP POP JUMP JUMPDEST PUSH1 0x0 DUP1 PUSH1 0x0 PUSH1 0x60 DUP5 DUP7 SUB SLT ISZERO PUSH2 0xD4B JUMPI PUSH1 0x0 DUP1 REVERT JUMPDEST PUSH2 0xD54 DUP5 PUSH2 0xCF0 JUMP JUMPDEST SWAP3 POP PUSH2 0xD62 PUSH1 0x20 DUP6 ADD PUSH2 0xCF0 JUMP JUMPDEST SWAP2 POP PUSH1 0x40 DUP5 ADD CALLDATALOAD SWAP1 POP SWAP3 POP SWAP3 POP SWAP3 JUMP JUMPDEST PUSH1 0x0 PUSH1 0x20 DUP3 DUP5 SUB SLT ISZERO PUSH2 0xD84 JUMPI PUSH1 0x0 DUP1 REVERT JUMPDEST POP CALLDATALOAD SWAP2 SWAP1 POP JUMP JUMPDEST PUSH1 0x0 PUSH1 0x20 DUP3 DUP5 SUB SLT ISZERO PUSH2 0xD9D JUMPI PUSH1 0x0 DUP1 REVERT JUMPDEST PUSH2 0x62E DUP3 PUSH2 0xCF0 JUMP JUMPDEST PUSH1 0x0 DUP1 PUSH1 0x40 DUP4 DUP6 SUB SLT ISZERO PUSH2 0xDB9 JUMPI PUSH1 0x0 DUP1 REVERT JUMPDEST PUSH2 0xDC2 DUP4 PUSH2 0xCF0 JUMP JUMPDEST SWAP2 POP PUSH2 0xDD0 PUSH1 0x20 DUP5 ADD PUSH2 0xCF0 JUMP JUMPDEST SWAP1 POP SWAP3 POP SWAP3 SWAP1 POP JUMP JUMPDEST PUSH1 0x1 DUP2 DUP2 SHR SWAP1 DUP3 AND DUP1 PUSH2 0xDED JUMPI PUSH1 0x7F DUP3 AND SWAP2 POP JUMPDEST PUSH1 0x20 DUP3 LT DUP2 SUB PUSH2 0xE0D JUMPI PUSH4 0x4E487B71 PUSH1 0xE0 SHL PUSH1 0x0 MSTORE PUSH1 0x22 PUSH1 0x4 MSTORE PUSH1 0x24 PUSH1 0x0 REVERT JUMPDEST POP SWAP2 SWAP1 POP JUMP JUMPDEST PUSH4 0x4E487B71 PUSH1 0xE0 SHL PUSH1 0x0 MSTORE PUSH1 0x32 PUSH1 0x4 MSTORE PUSH1 0x24 PUSH1 0x0 REVERT JUMPDEST PUSH1 0x20 DUP1 DUP3 MSTORE PUSH1 0x13 SWAP1 DUP3 ADD MSTORE PUSH19 0x139BC81D1C985B9CD858DD1A5BDB9CC81E595D PUSH1 0x6A SHL PUSH1 0x40 DUP3 ADD MSTORE PUSH1 0x60 ADD SWAP1 JUMP JUMPDEST PUSH4 0x4E487B71 PUSH1 0xE0 SHL PUSH1 0x0 MSTORE PUSH1 0x11 PUSH1 0x4 MSTORE PUSH1 0x24 PUSH1 0x0 REVERT JUMPDEST DUP2 DUP2 SUB DUP2 DUP2 GT ISZERO PUSH2 0x2FD JUMPI PUSH2 0x2FD PUSH2 0xE56 JUMP JUMPDEST PUSH4 0x4E487B71 PUSH1 0xE0 SHL PUSH1 0x0 MSTORE PUSH1 0x12 PUSH1 0x4 MSTORE PUSH1 0x24 PUSH1 0x0 REVERT JUMPDEST PUSH1 0x0 DUP3 PUSH2 0xEA4 JUMPI PUSH2 0xEA4 PUSH2 0xE7F JUMP JUMPDEST POP DIV SWAP1 JUMP JUMPDEST PUSH1 0x0 DUP5 MLOAD PUSH2 0xEBB DUP2 DUP5 PUSH1 0x20 DUP10 ADD PUSH2 0xC99 JUMP JUMPDEST DUP1 DUP4 ADD SWAP1 POP PUSH1 0x2D PUSH1 0xF8 SHL DUP1 DUP3 MSTORE DUP6 MLOAD PUSH2 0xEDB DUP2 PUSH1 0x1 DUP6 ADD PUSH1 0x20 DUP11 ADD PUSH2 0xC99 JUMP JUMPDEST PUSH1 0x1 SWAP3 ADD SWAP2 DUP3 ADD MSTORE DUP4 MLOAD PUSH2 0xEF6 DUP2 PUSH1 0x2 DUP5 ADD PUSH1 0x20 DUP9 ADD PUSH2 0xC99 JUMP JUMPDEST ADD PUSH1 0x2 ADD SWAP6 SWAP5 POP POP POP POP POP JUMP JUMPDEST DUP1 DUP3 ADD DUP1 DUP3 GT ISZERO PUSH2 0x2FD JUMPI PUSH2 0x2FD PUSH2 0xE56 JUMP JUMPDEST DUP1 DUP3 ADD DUP3 DUP2 SLT PUSH1 0x0 DUP4 SLT DUP1 ISZERO DUP3 AND DUP3 ISZERO DUP3 AND OR ISZERO PUSH2 0xF36 JUMPI PUSH2 0xF36 PUSH2 0xE56 JUMP JUMPDEST POP POP SWAP3 SWAP2 POP POP JUMP JUMPDEST DUP1 DUP3 MUL PUSH1 0x0 DUP3 SLT PUSH1 0x1 PUSH1 0xFF SHL DUP5 EQ AND ISZERO PUSH2 0xF5A JUMPI PUSH2 0xF5A PUSH2 0xE56 JUMP JUMPDEST DUP2 DUP2 SDIV DUP4 EQ DUP3 ISZERO OR PUSH2 0x2FD JUMPI PUSH2 0x2FD PUSH2 0xE56 JUMP JUMPDEST PUSH1 0x0 DUP3 PUSH2 0xF7D JUMPI PUSH2 0xF7D PUSH2 0xE7F JUMP JUMPDEST PUSH1 0x1 PUSH1 0xFF SHL DUP3 EQ PUSH1 0x0 NOT DUP5 EQ AND ISZERO PUSH2 0xF97 JUMPI PUSH2 0xF97 PUSH2 0xE56 JUMP JUMPDEST POP SDIV SWAP1 JUMP JUMPDEST DUP2 DUP2 SUB PUSH1 0x0 DUP4 SLT DUP1 ISZERO DUP4 DUP4 SGT AND DUP4 DUP4 SLT DUP3 AND OR ISZERO PUSH2 0xFBC JUMPI PUSH2 0xFBC PUSH2 0xE56 JUMP JUMPDEST POP SWAP3 SWAP2 POP POP JUMP JUMPDEST PUSH1 0x0 PUSH1 0x1 DUP3 ADD PUSH2 0xFD5 JUMPI PUSH2 0xFD5 PUSH2 0xE56 JUMP JUMPDEST POP PUSH1 0x1 ADD SWAP1 JUMP JUMPDEST PUSH4 0x4E487B71 PUSH1 0xE0 SHL PUSH1 0x0 MSTORE PUSH1 0x41 PUSH1 0x4 MSTORE PUSH1 0x24 PUSH1 0x0 REVERT JUMPDEST DUP1 DUP3 MUL DUP2 ISZERO DUP3 DUP3 DIV DUP5 EQ OR PUSH2 0x2FD JUMPI PUSH2 0x2FD PUSH2 0xE56 JUMP JUMPDEST PUSH1 0xFF DUP2 DUP2 AND DUP4 DUP3 AND ADD SWAP1 DUP2 GT ISZERO PUSH2 0x2FD JUMPI PUSH2 0x2FD PUSH2 0xE56 JUMP INVALID LOG2 PUSH5 0x6970667358 0x22 SLT KECCAK256 0xF7 0x4F 0xFB 0xFB LOG3 PUSH6 0x83C3F4C7FE57 DELEGATECALL JUMPDEST 0x28 CALLDATALOAD SELFDESTRUCT SLOAD RETURNDATASIZE DUP1 DUP3 0xD4 SHR PC 0xD6 SWAP15 XOR MSTORE8 SWAP14 ORIGIN SELFBALANCE 0xBF PUSH5 0x736F6C6343 STOP ADDMOD EQ STOP CALLER "},"methodIdentifiers":{"allowance(address,address)":"dd62ed3e","approve(address,uint256)":"095ea7b3","balanceOf(address)":"70a08231","decimals()":"313ce567","getInitialMintValue()":"1a80be61","getTransaction(uint256)":"33ea3dc8","getTransactionReceiver()":"841b39fc","getTransactionSender()":"bead3f50","getTransactionTimestamp()":"81ccf4c4","name()":"06fdde03","symbol()":"95d89b41","totalSupply()":"18160ddd","transfer(address,uint256)":"a9059cbb","transferFrom(address,address,uint256)":"23b872dd"}}}}}