{
  "_format": "hh-sol-artifact-1",
  "contractName": "AituSE2320",
  "sourceName": "contracts/AituSE2320.sol",
  "abi": [
    {
      "inputs": [
        {
          "internalType": "uint256",
          "name": "_initialValue",
          "type": "uint256"
        }
      ],
      "stateMutability": "nonpayable",
      "type": "constructor"
    },
    {
      "inputs": [
        {
          "internalType": "address",
          "name": "spender",
          "type": "address"
        },
        {
          "internalType": "uint256",
          "name": "allowance",
          "type": "uint256"
        },
        {
          "internalType": "uint256",
          "name": "needed",
          "type": "uint256"
        }
      ],
      "name": "ERC20InsufficientAllowance",
      "type": "error"
    },
    {
      "inputs": [
        {
          "internalType": "address",
          "name": "sender",
          "type": "address"
        },
        {
          "internalType": "uint256",
          "name": "balance",
          "type": "uint256"
        },
        {
          "internalType": "uint256",
          "name": "needed",
          "type": "uint256"
        }
      ],
      "name": "ERC20InsufficientBalance",
      "type": "error"
    },
    {
      "inputs": [
        {
          "internalType": "address",
          "name": "approver",
          "type": "address"
        }
      ],
      "name": "ERC20InvalidApprover",
      "type": "error"
    },
    {
      "inputs": [
        {
          "internalType": "address",
          "name": "receiver",
          "type": "address"
        }
      ],
      "name": "ERC20InvalidReceiver",
      "type": "error"
    },
    {
      "inputs": [
        {
          "internalType": "address",
          "name": "sender",
          "type": "address"
        }
      ],
      "name": "ERC20InvalidSender",
      "type": "error"
    },
    {
      "inputs": [
        {
          "internalType": "address",
          "name": "spender",
          "type": "address"
        }
      ],
      "name": "ERC20InvalidSpender",
      "type": "error"
    },
    {
      "anonymous": false,
      "inputs": [
        {
          "indexed": true,
          "internalType": "address",
          "name": "owner",
          "type": "address"
        },
        {
          "indexed": true,
          "internalType": "address",
          "name": "spender",
          "type": "address"
        },
        {
          "indexed": false,
          "internalType": "uint256",
          "name": "value",
          "type": "uint256"
        }
      ],
      "name": "Approval",
      "type": "event"
    },
    {
      "anonymous": false,
      "inputs": [
        {
          "indexed": true,
          "internalType": "address",
          "name": "sender",
          "type": "address"
        },
        {
          "indexed": true,
          "internalType": "address",
          "name": "receiver",
          "type": "address"
        },
        {
          "indexed": false,
          "internalType": "uint256",
          "name": "amount",
          "type": "uint256"
        },
        {
          "indexed": false,
          "internalType": "uint256",
          "name": "timestamp",
          "type": "uint256"
        }
      ],
      "name": "TransactionDetails",
      "type": "event"
    },
    {
      "anonymous": false,
      "inputs": [
        {
          "indexed": true,
          "internalType": "address",
          "name": "from",
          "type": "address"
        },
        {
          "indexed": true,
          "internalType": "address",
          "name": "to",
          "type": "address"
        },
        {
          "indexed": false,
          "internalType": "uint256",
          "name": "value",
          "type": "uint256"
        }
      ],
      "name": "Transfer",
      "type": "event"
    },
    {
      "inputs": [
        {
          "internalType": "address",
          "name": "owner",
          "type": "address"
        },
        {
          "internalType": "address",
          "name": "spender",
          "type": "address"
        }
      ],
      "name": "allowance",
      "outputs": [
        {
          "internalType": "uint256",
          "name": "",
          "type": "uint256"
        }
      ],
      "stateMutability": "view",
      "type": "function"
    },
    {
      "inputs": [
        {
          "internalType": "address",
          "name": "spender",
          "type": "address"
        },
        {
          "internalType": "uint256",
          "name": "value",
          "type": "uint256"
        }
      ],
      "name": "approve",
      "outputs": [
        {
          "internalType": "bool",
          "name": "",
          "type": "bool"
        }
      ],
      "stateMutability": "nonpayable",
      "type": "function"
    },
    {
      "inputs": [
        {
          "internalType": "address",
          "name": "account",
          "type": "address"
        }
      ],
      "name": "balanceOf",
      "outputs": [
        {
          "internalType": "uint256",
          "name": "",
          "type": "uint256"
        }
      ],
      "stateMutability": "view",
      "type": "function"
    },
    {
      "inputs": [],
      "name": "decimals",
      "outputs": [
        {
          "internalType": "uint8",
          "name": "",
          "type": "uint8"
        }
      ],
      "stateMutability": "view",
      "type": "function"
    },
    {
      "inputs": [],
      "name": "getInitialMintValue",
      "outputs": [
        {
          "internalType": "uint256",
          "name": "",
          "type": "uint256"
        }
      ],
      "stateMutability": "view",
      "type": "function"
    },
    {
      "inputs": [
        {
          "internalType": "uint256",
          "name": "index",
          "type": "uint256"
        }
      ],
      "name": "getTransaction",
      "outputs": [
        {
          "internalType": "address",
          "name": "",
          "type": "address"
        },
        {
          "internalType": "address",
          "name": "",
          "type": "address"
        },
        {
          "internalType": "uint256",
          "name": "",
          "type": "uint256"
        },
        {
          "internalType": "uint256",
          "name": "",
          "type": "uint256"
        }
      ],
      "stateMutability": "view",
      "type": "function"
    },
    {
      "inputs": [],
      "name": "getTransactionReceiver",
      "outputs": [
        {
          "internalType": "address",
          "name": "",
          "type": "address"
        }
      ],
      "stateMutability": "view",
      "type": "function"
    },
    {
      "inputs": [],
      "name": "getTransactionSender",
      "outputs": [
        {
          "internalType": "address",
          "name": "",
          "type": "address"
        }
      ],
      "stateMutability": "view",
      "type": "function"
    },
    {
      "inputs": [],
      "name": "getTransactionTimestamp",
      "outputs": [
        {
          "internalType": "string",
          "name": "",
          "type": "string"
        }
      ],
      "stateMutability": "view",
      "type": "function"
    },
    {
      "inputs": [],
      "name": "name",
      "outputs": [
        {
          "internalType": "string",
          "name": "",
          "type": "string"
        }
      ],
      "stateMutability": "view",
      "type": "function"
    },
    {
      "inputs": [],
      "name": "symbol",
      "outputs": [
        {
          "internalType": "string",
          "name": "",
          "type": "string"
        }
      ],
      "stateMutability": "view",
      "type": "function"
    },
    {
      "inputs": [],
      "name": "totalSupply",
      "outputs": [
        {
          "internalType": "uint256",
          "name": "",
          "type": "uint256"
        }
      ],
      "stateMutability": "view",
      "type": "function"
    },
    {
      "inputs": [
        {
          "internalType": "address",
          "name": "recipient",
          "type": "address"
        },
        {
          "internalType": "uint256",
          "name": "amount",
          "type": "uint256"
        }
      ],
      "name": "transfer",
      "outputs": [
        {
          "internalType": "bool",
          "name": "",
          "type": "bool"
        }
      ],
      "stateMutability": "nonpayable",
      "type": "function"
    },
    {
      "inputs": [
        {
          "internalType": "address",
          "name": "from",
          "type": "address"
        },
        {
          "internalType": "address",
          "name": "to",
          "type": "address"
        },
        {
          "internalType": "uint256",
          "name": "value",
          "type": "uint256"
        }
      ],
      "name": "transferFrom",
      "outputs": [
        {
          "internalType": "bool",
          "name": "",
          "type": "bool"
        }
      ],
      "stateMutability": "nonpayable",
      "type": "function"
    }
  ],
  "bytecode": "0x60806040523480156200001157600080fd5b506040516200158d3803806200158d83398101604081905262000034916200023d565b6040518060400160405280600a8152602001690416974755345323332360b41b815250604051806040016040528060048152602001634149545560e01b8152508160039081620000859190620002fc565b506004620000948282620002fc565b5050506006819055620000c133620000af6012600a620004dd565b620000bb9084620004f5565b620000c8565b5062000525565b6001600160a01b038216620000f85760405163ec442f0560e01b8152600060048201526024015b60405180910390fd5b62000106600083836200010a565b5050565b6001600160a01b038316620001395780600260008282546200012d91906200050f565b90915550620001ad9050565b6001600160a01b038316600090815260208190526040902054818110156200018e5760405163391434e360e21b81526001600160a01b03851660048201526024810182905260448101839052606401620000ef565b6001600160a01b03841660009081526020819052604090209082900390555b6001600160a01b038216620001cb57600280548290039055620001ea565b6001600160a01b03821660009081526020819052604090208054820190555b816001600160a01b0316836001600160a01b03167fddf252ad1be2c89b69c2b068fc378daa952ba7f163c4a11628f55a4df523b3ef836040516200023091815260200190565b60405180910390a3505050565b6000602082840312156200025057600080fd5b5051919050565b634e487b7160e01b600052604160045260246000fd5b600181811c908216806200028257607f821691505b602082108103620002a357634e487b7160e01b600052602260045260246000fd5b50919050565b601f821115620002f757600081815260208120601f850160051c81016020861015620002d25750805b601f850160051c820191505b81811015620002f357828155600101620002de565b5050505b505050565b81516001600160401b0381111562000318576200031862000257565b62000330816200032984546200026d565b84620002a9565b602080601f8311600181146200036857600084156200034f5750858301515b600019600386901b1c1916600185901b178555620002f3565b600085815260208120601f198616915b82811015620003995788860151825594840194600190910190840162000378565b5085821015620003b85787850151600019600388901b60f8161c191681555b5050505050600190811b01905550565b634e487b7160e01b600052601160045260246000fd5b600181815b808511156200041f578160001904821115620004035762000403620003c8565b808516156200041157918102915b93841c9390800290620003e3565b509250929050565b6000826200043857506001620004d7565b816200044757506000620004d7565b81600181146200046057600281146200046b576200048b565b6001915050620004d7565b60ff8411156200047f576200047f620003c8565b50506001821b620004d7565b5060208310610133831016604e8410600b8410161715620004b0575081810a620004d7565b620004bc8383620003de565b8060001904821115620004d357620004d3620003c8565b0290505b92915050565b6000620004ee60ff84168362000427565b9392505050565b8082028115828204841417620004d757620004d7620003c8565b80820180821115620004d757620004d7620003c8565b61105880620005356000396000f3fe608060405234801561001057600080fd5b50600436106100ea5760003560e01c806370a082311161008c57806395d89b411161006657806395d89b41146101fb578063a9059cbb14610203578063bead3f5014610216578063dd62ed3e1461021e57600080fd5b806370a08231146101aa57806381ccf4c4146101d3578063841b39fc146101db57600080fd5b80631a80be61116100c85780631a80be611461014257806323b872dd1461014a578063313ce5671461015d57806333ea3dc81461016c57600080fd5b806306fdde03146100ef578063095ea7b31461010d57806318160ddd14610130575b600080fd5b6100f7610257565b6040516101049190610cbd565b60405180910390f35b61012061011b366004610d0c565b6102e9565b6040519015158152602001610104565b6002545b604051908152602001610104565b600654610134565b610120610158366004610d36565b610303565b60405160128152602001610104565b61017f61017a366004610d72565b610327565b604080516001600160a01b039586168152949093166020850152918301526060820152608001610104565b6101346101b8366004610d8b565b6001600160a01b031660009081526020819052604090205490565b6100f76103fe565b6101e3610461565b6040516001600160a01b039091168152602001610104565b6100f76104c5565b610120610211366004610d0c565b6104d4565b6101e3610635565b61013461022c366004610da6565b6001600160a01b03918216600090815260016020908152604080832093909416825291909152205490565b60606003805461026690610dd9565b80601f016020809104026020016040519081016040528092919081815260200182805461029290610dd9565b80156102df5780601f106102b4576101008083540402835291602001916102df565b820191906000526020600020905b8154815290600101906020018083116102c257829003601f168201915b5050505050905090565b6000336102f7818585610696565b60019150505b92915050565b6000336103118582856106a8565b61031c858585610727565b506001949350505050565b60008060008060058054905085106103865760405162461bcd60e51b815260206004820152601a60248201527f5472616e73616374696f6e20646f6573206e6f7420657869737400000000000060448201526064015b60405180910390fd5b60006005868154811061039b5761039b610e13565b60009182526020918290206040805160808101825260049390930290910180546001600160a01b03908116808552600183015490911694840185905260028201549284018390526003909101546060909301839052999298509650945092505050565b6005546060906104205760405162461bcd60e51b815260040161037d90610e29565b6005805461045c919061043590600190610e6c565b8154811061044557610445610e13565b906000526020600020906004020160030154610786565b905090565b6005546000906104835760405162461bcd60e51b815260040161037d90610e29565b6005805461049390600190610e6c565b815481106104a3576104a3610e13565b60009182526020909120600160049092020101546001600160a01b0316919050565b60606004805461026690610dd9565b6000806104e184846107ed565b9050801561062e5760408051608081018252338082526001600160a01b0387811660208401818152848601898152426060870181815260058054600181018255600091909152975160049098027f036b6384b5eca791c62761152d0c79bb0604c104a5fb6f4eb0703f3154bb3db0810180549988166001600160a01b03199a8b1617905593517f036b6384b5eca791c62761152d0c79bb0604c104a5fb6f4eb0703f3154bb3db18501805491909716981697909717909455517f036b6384b5eca791c62761152d0c79bb0604c104a5fb6f4eb0703f3154bb3db282015593517f036b6384b5eca791c62761152d0c79bb0604c104a5fb6f4eb0703f3154bb3db3909401939093559251919290917f7a48acc386aece1e204184f35fef46e19f8459bafec5faf62b405943608a42a19161062591889190918252602082015260400190565b60405180910390a35b9392505050565b6005546000906106575760405162461bcd60e51b815260040161037d90610e29565b6005805461066790600190610e6c565b8154811061067757610677610e13565b60009182526020909120600490910201546001600160a01b0316919050565b6106a383838360016107fb565b505050565b6001600160a01b03838116600090815260016020908152604080832093861683529290522054600019811015610721578181101561071257604051637dc7a0d960e11b81526001600160a01b0384166004820152602481018290526044810183905260640161037d565b610721848484840360006107fb565b50505050565b6001600160a01b03831661075157604051634b637e8f60e11b81526000600482015260240161037d565b6001600160a01b03821661077b5760405163ec442f0560e01b81526000600482015260240161037d565b6106a38383836108d0565b6060600080806107a161079c6201518087610e95565b6109fa565b9250925092506107b081610b6d565b6107b983610b6d565b6107c285610b6d565b6040516020016107d493929190610ea9565b6040516020818303038152906040529350505050919050565b6000336102f7818585610727565b6001600160a01b0384166108255760405163e602df0560e01b81526000600482015260240161037d565b6001600160a01b03831661084f57604051634a1406b160e11b81526000600482015260240161037d565b6001600160a01b038085166000908152600160209081526040808320938716835292905220829055801561072157826001600160a01b0316846001600160a01b03167f8c5be1e5ebec7d5bd14f71427d1e84f3dd0314c0f7b2291e5b200ac8c7c3b925846040516108c291815260200190565b60405180910390a350505050565b6001600160a01b0383166108fb5780600260008282546108f09190610f03565b9091555061096d9050565b6001600160a01b0383166000908152602081905260409020548181101561094e5760405163391434e360e21b81526001600160a01b0385166004820152602481018290526044810183905260640161037d565b6001600160a01b03841660009081526020819052604090209082900390555b6001600160a01b038216610989576002805482900390556109a8565b6001600160a01b03821660009081526020819052604090208054820190555b816001600160a01b0316836001600160a01b03167fddf252ad1be2c89b69c2b068fc378daa952ba7f163c4a11628f55a4df523b3ef836040516109ed91815260200190565b60405180910390a3505050565b600080808381610a0d8262010bd9610f16565b610a1a9062253d8c610f16565b9050600062023ab1610a2d836004610f3e565b610a379190610f6e565b90506004610a488262023ab1610f3e565b610a53906003610f16565b610a5d9190610f6e565b610a679083610f9c565b9150600062164b09610a7a846001610f16565b610a8690610fa0610f3e565b610a909190610f6e565b90506004610aa0826105b5610f3e565b610aaa9190610f6e565b610ab49084610f9c565b610abf90601f610f16565b9250600061098f610ad1856050610f3e565b610adb9190610f6e565b905060006050610aed8361098f610f3e565b610af79190610f6e565b610b019086610f9c565b9050610b0e600b83610f6e565b9450610b1b85600c610f3e565b610b26836002610f16565b610b309190610f9c565b91508483610b3f603187610f9c565b610b4a906064610f3e565b610b549190610f16565b610b5e9190610f16565b9a919950975095505050505050565b606081600003610b945750506040805180820190915260018152600360fc1b602082015290565b8160005b8115610bbe5780610ba881610fc3565b9150610bb79050600a83610e95565b9150610b98565b60008167ffffffffffffffff811115610bd957610bd9610fdc565b6040519080825280601f01601f191660200182016040528015610c03576020820181803683370190505b509050815b8515610c9057610c19600182610e6c565b90506000610c28600a88610e95565b610c3390600a610ff2565b610c3d9088610e6c565b610c48906030611009565b905060008160f81b905080848481518110610c6557610c65610e13565b60200101906001600160f81b031916908160001a905350610c87600a89610e95565b97505050610c08565b50949350505050565b60005b83811015610cb4578181015183820152602001610c9c565b50506000910152565b6020815260008251806020840152610cdc816040850160208701610c99565b601f01601f19169190910160400192915050565b80356001600160a01b0381168114610d0757600080fd5b919050565b60008060408385031215610d1f57600080fd5b610d2883610cf0565b946020939093013593505050565b600080600060608486031215610d4b57600080fd5b610d5484610cf0565b9250610d6260208501610cf0565b9150604084013590509250925092565b600060208284031215610d8457600080fd5b5035919050565b600060208284031215610d9d57600080fd5b61062e82610cf0565b60008060408385031215610db957600080fd5b610dc283610cf0565b9150610dd060208401610cf0565b90509250929050565b600181811c90821680610ded57607f821691505b602082108103610e0d57634e487b7160e01b600052602260045260246000fd5b50919050565b634e487b7160e01b600052603260045260246000fd5b602080825260139082015272139bc81d1c985b9cd858dd1a5bdb9cc81e595d606a1b604082015260600190565b634e487b7160e01b600052601160045260246000fd5b818103818111156102fd576102fd610e56565b634e487b7160e01b600052601260045260246000fd5b600082610ea457610ea4610e7f565b500490565b60008451610ebb818460208901610c99565b8083019050602d60f81b8082528551610edb816001850160208a01610c99565b60019201918201528351610ef6816002840160208801610c99565b0160020195945050505050565b808201808211156102fd576102fd610e56565b8082018281126000831280158216821582161715610f3657610f36610e56565b505092915050565b80820260008212600160ff1b84141615610f5a57610f5a610e56565b81810583148215176102fd576102fd610e56565b600082610f7d57610f7d610e7f565b600160ff1b821460001984141615610f9757610f97610e56565b500590565b8181036000831280158383131683831282161715610fbc57610fbc610e56565b5092915050565b600060018201610fd557610fd5610e56565b5060010190565b634e487b7160e01b600052604160045260246000fd5b80820281158282048414176102fd576102fd610e56565b60ff81811683821601908111156102fd576102fd610e5656fea2646970667358221220f74ffbfba36583c3f4c7fe57f45b2835ff543d8082d41c58d69e18539d3247bf64736f6c63430008140033",
  "linkReferences": {},
  "deployedLinkReferences": {}
}